:0300000002094EA4
:0C094E00787FE4F6D8FD75810902092AC3
:10092A00758901758C8A758AD0D2AFD2A9D28CC248
:10093A00B1E509B41FFB7590FF30B404D2B180F160
:04094A00C2B180EDC9
:03000B00020800E8
:10080000C0E0C083C082C0D075D000C000758C8AA3
:10081000758AD07590FF85900953091FE509120963
:100820000408E10C08A00E08800F08CA14088F16EF
:1008300008711708661B08B31C084A1D08431E00F0
:100840000008F9C284C2850208F9E508640F701136
:10085000B280B281B282B283B284B285F508020856
:10086000F905080208F9B280B281B284B2850208A3
:10087000F9E508B40F06B280B28480460508807995
:10088000E508B40F06B281B28580200508806AC2EF
:1008900085E508B40F06B284B28080260508805929
:1008A000C284E508B40F08B285B281B283804305E3
:1008B000088046C284C285E508B40F0AB281B280BE
:1008C000B283B282802C0508802FC285E508B40F60
:1008D0000CB284B281B283B280B2828015050880E6
:1008E00018C284E508B40F0FB285B281B283B2801A
:1008F000B28275080080020508D000D0D0D082D026
:0409000083D0E0328E
:10090400D083D082F8E4937012740193700DA3A382
:1009140093F8740193F5828883E473740293686096
:06092400EFA3A3A380DF96
:00000001FF
